9998289400040312202400000100000370368000                                                                               
289401050000001417150802000001234560002024120300002666457100049999PUCCINI, GUSTAVO JOSE                   0000000000000
289401059900007054360302000001234560002024120300002907336300049999NARDONI , VICTOR                        0000000000000
289401059900007483900602000001234560002024120300002914220800049999GIANFELICI, ESTEBAN                     0000000000000
