9998289400040312202400000100022385679660                                                                               
289401000000004115730502000009000000002024120300003651978300049999BONIFACINO, VICTORIA                    0000000000000
289401050000003137780702000078000000002024120300001734423300049999ROURA , JOSE VICENTE                    0000000000000
289401059900002368301002000007800000002024120300002690725700049999VERA ALVARADO, ALVARO JABIER            0000000000000
2894ne012300000000012302000005600000002024120300002690725700049999FERNANDEZ, FERNANDO                     0000000000000
289401059900007083600002000123456780002024120300001126901600049999GAYA, JORGE LUIS                        0000000000000
