9998270400530711202400000100001111110000                                                                               
270401000000000611606002000009999990002024110700001379504400049999MANFRE, GABRIEL                         0000000000000
270401000000002231700702000001111110002024110700001379562200049999SANCHEZ, JOSE AMADOR                    0000000000000
