9998289400040711202400000100002777775000                                                                               
289401059900002152651002000005555550002024110700004089221800049999NARI, FIORELLA CONSTANZA                0000000000000
289401059900002122850802000005555550002024110700004036324400049999BRANDT, CAMILA DEL ROSARIO              0000000000000
289401059900002152660802000005555550002024110700004161051100049999LOVATTO, JOSEFINA ELISABETH             0000000000000
289401000000005475830002000005555550002024110700004140413800049999FERNANDEZ BRUERA, SANTIAGO JOSE         0000000000000
289401000000004401120602000005555550002024110700003412595700049999CUADO Y DE SAN FRANCISCO, DANIELA BETHAN0000000000000
